:100000000C942A000C94A70B0C94110C0C94210C4A
:100010000C9447000C9447000C9447000C94470044
:100020000C9447000C9447000C9447000C94EE0F7E
:100030000C9447000C9447000C9447000C94470024
:100040000C9447000C9447000C9447000C94470014
:100050000C94470011241FBECFE5D8E0DEBFCDBF12
:1000600010E0A0E6B0E0E0E5F6E202C005900D92F7
:10007000A437B107D9F710E0A4E7B0E001C01D92A2
:10008000A837B107E1F70E9481100C9426130C9455
:100090000000EF92FF920F931F937B018C0120E0F1
:1000A00030E040E05FE40E94F50388238CF0C80153
:1000B000B70120E030E040E05FE40E94C1010E940F
:1000C00055049B01AC01205030404040504806C0D0
:1000D000C801B7010E9455049B01AC01B901CA01D6
:1000E0001F910F91FF90EF900895A0E0B0E0EBE733
:1000F000F0E00C94EF12DC012B01FA019C9192309C
:1001000008F439C1EB018881823008F433C194309E
:1001100069F4843009F02FC111969C91119789815F
:10012000981709F428C1ACE6B0E025C1843009F481
:1001300021C18230A9F4923009F01DC19A01AD01AC
:1001400088E0EA010990AE01E90109929E0181501F
:10015000C1F7E201898111969C918923818308C1AD
:10016000923009F407C112962D903C901397EB0141
:100170008A819B811496AD90BD90CD90DC901797AD
:10018000EC80FD800E811F819101281B390BB90184
:1001900037FF04C066277727621B730B6032710537
:1001A0000CF061C0121613066CF537014801062EDB
:1001B00004C096948794779467940A94D2F721E0C8
:1001C00030E040E050E004C0220F331F441F551FB1
:1001D0006A95D2F721503040404050402E213F21B7
:1001E00040235123211531054105510521F021E01E
:1001F00030E040E050E079018A01E628F72808293C
:1002000019293CC0232BD1F1260E371E350146019A
:10021000062E04C096948794779467940A94D2F734
:1002200021E030E040E050E004C0220F331F441FC3
:10023000551F6A95D2F721503040404050402A2146
:100240003B214C215D21211531054105510521F04E
:1002500021E030E040E050E059016A01A628B728CB
:10026000C828D9280BC0821593052CF01C01AA249C
:10027000BB24650103C0EE24FF24870111969C91E5
:10028000D20111968C91981709F445C0992339F041
:10029000A80197012A193B094C095D0906C0A6016E
:1002A00095012E193F09400B510B57FD08C01182D3
:1002B0003382228224833583468357831DC081E0A5
:1002C00081833382228288279927DC01821B930B4A
:1002D000A40BB50B84839583A683B7830DC0220F2F
:1002E000331F441F551F24833583468357838281E0
:1002F000938101979383828324813581468157813D
:10030000DA01C9010197A109B1098F5F9F4FAF4F72
:10031000BF4328F30BC0918333822282EA0CFB1C7B
:100320000C1D1D1DE482F5820683178383E0808304
:10033000248135814681578157FF1AC0C901AA27F8
:1003400097FDA095BA2F81709070A070B0705695EF
:10035000479537952795822B932BA42BB52B848318
:100360009583A683B7838281938101969383828349
:10037000DF0101C0D201CD01CDB7DEB7E2E10C94BF
:100380000B13A0E2B0E0E7ECF1E00C94FB12698300
:100390007A838B839C832D833E834F835887E9E048
:1003A000EE2EF12CEC0EFD1ECE010196B7010E943F
:1003B0007E058E010F5E1F4FCE010596B8010E948B
:1003C0007E058A8991E089278A8BC701B801AE0131
:1003D000475E5F4F0E9475000E94A904A096E6E068
:1003E0000C941713A0E2B0E0E8EFF1E00C94FB12DC
:1003F00069837A838B839C832D833E834F835887C5
:10040000F9E0EF2EF12CEC0EFD1ECE010196B701A6
:100410000E947E058E010F5E1F4FCE010596B8012A
:100420000E947E05C701B801AE01475E5F4F0E9482
:1004300075000E94A904A096E6E00C941713A0E2B0
:10044000B0E0E5E2F2E00C94EF1269837A838B83EB
:100450009C832D833E834F835887CE010196BE0136
:10046000675F7F4F0E947E05CE010596BE016F5EDD
:100470007F4F0E947E059985923088F0898982306D
:10048000C8F0943019F4823051F404C0843029F457
:10049000923081F48CE690E0C6C0923049F420E0BE
:1004A0009A858A89981321E02A87CE010996BBC0D4
:1004B000823049F420E09A858A89981321E02A8BBA
:1004C000CE014196B0C02D843E844F8458886D88FB
:1004D0007E888F88988CEE24FF248701AA24BB2471
:1004E000650140E050E060E070E0E0E0F0E0C10174
:1004F00081709070892BE9F0E60CF71C081D191D1E
:100500009A01AB012A0D3B1D4C1D5D1D80E090E062
:10051000A0E0B0E0E614F7040805190520F481E036
:1005200090E0A0E0B0E0BA01A901480F591F6A1F8E
:100530007B1FAA0CBB1CCC1CDD1C97FE08C081E0F5
:1005400090E0A0E0B0E0A82AB92ACA2ADB2A3196B6
:10055000E032F10549F0660C771C881C991C569412
:10056000479437942794C3CFFA85EA892B893C892D
:100570008B859C85280F391F2E5F3F4F17C0CA01FE
:1005800081709070892B61F016950795F794E79428
:1005900080E090E0A0E0B0E8E82AF92A0A2B1B2BC3
:1005A00076956795579547952F5F3F4F77FDE7CF36
:1005B0000CC0440F551F661F771F17FD4160EE0CDE
:1005C000FF1C001F111F21503040403090E05907A0
:1005D00090E0690790E4790760F32B8F3C8FDB0193
:1005E000CA018F779070A070B07080349105A1051A
:1005F000B10561F447FD0AC0E114F10401051105DC
:1006000029F0405C5F4F6F4F7F4F40781A8EFE1786
:1006100011F081E08A8F4D8F5E8F6F8F78A383E01A
:10062000898FCE0149960E94A904A096E2E10C941C
:100630000B13A8E1B0E0EFE1F3E00C94F71269834B
:100640007A838B839C832D833E834F835887B9E0C5
:10065000EB2EF12CEC0EFD1ECE010196B7010E948F
:100660007E058E010F5E1F4FCE010596B8010E94D8
:100670007E052985223008F47EC03989323010F495
:10068000B8017CC08A859A8989278A87243011F02D
:10069000223031F4231709F06EC06CE670E06EC0B2
:1006A000343039F41D861E861F86188A1C861B86E8
:1006B00004C0323021F484E08987B7015FC02B8504
:1006C0003C858B899C89281B390B3C872B87ED84C3
:1006D000FE840F851889AD88BE88CF88D88CEA142F
:1006E000FB040C051D0540F4EE0CFF1C001F111F40
:1006F000215030403C872B8720E030E040E050E044
:1007000080E090E0A0E0B0E460E070E0EA14FB0478
:100710000C051D0540F0282B392B4A2B5B2BEA18C2
:10072000FB080C091D09B695A79597958795EE0CC2
:10073000FF1C001F111F6F5F7F4F6F31710531F775
:10074000DA01C9018F779070A070B0708034910584
:10075000A105B10561F427FD0AC0E114F10401050A
:10076000110529F0205C3F4F4F4F5F4F20782D87B8
:100770003E874F87588BBE01675F7F4FCB010E943A
:10078000A9046896EAE00C941313A8E1B0E0EBEC3E
:10079000F3E00C94FB1269837A838B839C832D8313
:1007A0003E834F83588789E0E82EF12CEC0EFD1E26
:1007B000CE010196B7010E947E058E010F5E1F4F8C
:1007C000CE010596B8010E947E058985823040F0F1
:1007D0008989823028F0C701B8010E94F60501C05E
:1007E0008FEF6896E6E00C941713A8E1B0E0EBEF0A
:1007F000F3E00C94FB1269837A838B839C832D83B3
:100800003E834F83588789E0E82EF12CEC0EFD1EC5
:10081000CE010196B7010E947E058E010F5E1F4F2B
:10082000CE010596B8010E947E058985823040F090
:100830008989823028F0C701B8010E94F60501C0FD
:100840008FEF6896E6E00C941713A8E1B0E0EBE2B6
:10085000F4E00C94FB1269837A838B839C832D8351
:100860003E834F83588789E0E82EF12CEC0EFD1E65
:10087000CE010196B7010E947E058E010F5E1F4FCB
:10088000CE010596B8010E947E058985823040F030
:100890008989823028F0C701B8010E94F60501C09D
:1008A00081E06896E6E00C941713ACE0B0E0EBE56D
:1008B000F4E00C94FF1269837A838B839C83CE01CE
:1008C0000196BE016B5F7F4F0E947E058D81823055
:1008D00061F1823050F1843021F48E81882351F10E
:1008E0002EC02F81388537FD20C06E812F31310514
:1008F0001CF06623F9F023C08EE190E0821B930B7D
:1009000029853A854B855C8504C056954795379572
:1009100027958A95D2F76623B1F05095409530958A
:1009200021953F4F4F4F5F4F0EC020E030E040E039
:1009300050E009C02FEF3FEF4FEF5FE704C020E02A
:1009400030E040E050E8B901CA012C96E2E00C9496
:100950001B13DF92EF92FF920F931F93FC01E48031
:10096000F58006811781D1808081823048F480E053
:1009700090E0A0E1B0E0E82AF92A0A2B1B2BA5C0E1
:10098000843009F49FC0823021F4EE24FF248701D3
:1009900005C0E114F1040105110519F4E0E0F0E0EF
:1009A00096C0628173819FEF623879070CF05BC05B
:1009B00022E83FEF261B370B2A3131052CF020E0CF
:1009C00030E040E050E02AC0B801A701022E04C088
:1009D00076956795579547950A94D2F781E090E010
:1009E000A0E0B0E004C0880F991FAA1FBB1F2A9582
:1009F000D2F70197A109B1098E219F21A023B1232C
:100A00000097A105B10521F081E090E0A0E0B0E001
:100A10009A01AB01282B392B4A2B5B2BDA01C90138
:100A20008F779070A070B07080349105A105B105EA
:100A300039F427FF09C0205C3F4F4F4F5F4F04C080
:100A4000215C3F4F4F4F5F4FE0E0F0E02030A0E0EF
:100A50003A07A0E04A07A0E45A0710F0E1E0F0E00E
:100A600079018A0127C06038710564F5FB01E158FE
:100A7000FF4FD801C7018F779070A070B07080349D
:100A80009105A105B10539F4E7FE0DC080E490E0C1
:100A9000A0E0B0E004C08FE390E0A0E0B0E0E80E9A
:100AA000F91E0A1F1B1F17FF05C016950795F7941F
:100AB000E794319687E016950795F794E7948A9521
:100AC000D1F705C0EE24FF248701EFEFF0E06E2F91
:100AD000679566276795902F9F77D794DD24D794E5
:100AE0008E2F8695492F462B582F5D29B701CA01B5
:100AF0001F910F91FF90EF90DF900895FC01DB01B3
:100B0000408151812281622F6F7770E0221F22275E
:100B1000221F9381892F880F822B282F30E0991F65
:100B20009927991F11969C93119721153105A9F5C5
:100B3000411551056105710511F482E037C082E865
:100B40009FEF13969C938E9312979A01AB0167E0E7
:100B5000220F331F441F551F6A95D1F783E08C93F2
:100B60000DC0220F331F441F551F12968D919C916B
:100B70001397019713969C938E931297203080E0E1
:100B8000380780E0480780E4580758F314962D93FF
:100B90003D934D935C93179708952F3F310579F45A
:100BA000411551056105710519F484E08C93089590
:100BB00064FF03C081E08C9312C01C9210C02F57B9
:100BC000304013963C932E93129783E08C9387E0EA
:100BD000440F551F661F771F8A95D1F770641496CE
:100BE0004D935D936D937C93179708951F93DC014C
:100BF000FB019C91923008F447C08081823008F458
:100C000043C0943051F411961C91843099F5818140
:100C1000682F70E0611B71093FC0843021F0923071
:100C200031F48230B9F18181882389F12DC0119688
:100C30001C9111978230F1F081811817D9F4129626
:100C40002D913C911397828193818217930794F0A1
:100C500028173907BCF014968D919D910D90BC9189
:100C6000A02D2481358146815781281739074A07ED
:100C70005B0718F4112341F00AC082179307A407F9
:100C8000B50740F4112319F061E070E005C06FEF83
:100C90007FEF02C060E070E0CB011F910895DF9309
:100CA000CF93CDB7DEB70E94131082E06DE30E94B0
:100CB000BA0981E063E041E00E94330783E067E026
:100CC00041E00E943307CF91DF910895DF93CF93E6
:100CD0000F92CDB7DEB7898382E062E041E00E94E7
:100CE000330882E063E040E00E94330882E064E081
:100CF00040E00E94330882E065E040E00E94330853
:100D000089810E94F0060F90CF91DF910895DF93C3
:100D1000CF930F92CDB7DEB7898382E062E040E0E7
:100D20000E94330882E063E040E00E94330882E0E2
:100D300064E040E00E94330882E065E041E00E9408
:100D4000330889810E94FD060F90CF91DF910895AD
:100D5000DF93CF930F92CDB7DEB7898382E062E055
:100D600040E00E94330882E063E041E00E943308E3
:100D700082E064E040E00E94330882E065E041E008
:100D80000E94330889810E94F00689810E94FD0635
:100D90000F90CF91DF910895DF93CF930F92CDB74E
:100DA000DEB7898382E062E041E00E94330882E09E
:100DB00063E040E00E94330882E064E041E00E948A
:100DC000330882E065E040E00E94330889810E9498
:100DD000F00689810E94FD060F90CF91DF91089562
:100DE000DF93CF930F92CDB7DEB7898389810E94BD
:100DF000490F0F90CF91DF910895DF93CF930F921A
:100E0000CDB7DEB7898389810E9405100F90CF91FD
:100E1000DF910895DF93CF93CDB7DEB780E00E94D6
:100E2000F00680E00E94FD06CF91DF910895DF93E8
:100E3000CF9300D00F92CDB7DEB78A836B838A81C0
:100E40006B810E943309898399818EEF8927898379
:100E50008A816B8149810E9433080F900F900F9017
:100E6000CF91DF910895DF93CF93CDB7DEB727976A
:100E70000FB6F894DEBF0FBECDBF89836A834B8364
:100E80008B81813009F06FC08981282F30E03F834A
:100E90002E838E819F818130910549F12E813F8182
:100EA000223031052CF48E819F81009761F0D2C0F1
:100EB0002E813F812230310571F18E819F818330F7
:100EC0009105E9F1C7C0AAE3B0E0EAE3F0E0808170
:100ED000482F8A81282F30E081E090E0022E02C066
:100EE000880F991F0A94E2F7842B8C93B3C0A7E371
:100EF000B0E0E7E3F0E08081482F8A81282F30E0DE
:100F000081E090E0022E02C0880F991F0A94E2F758
:100F1000842B8C939FC0A4E3B0E0E4E3F0E08081F5
:100F2000482F8A81282F30E081E090E0022E02C015
:100F3000880F991F0A94E2F7842B8C938BC0A1E34E
:100F4000B0E0E1E3F0E08081482F8A81282F30E093
:100F500081E090E0022E02C0880F991F0A94E2F708
:100F6000842B8C9377C08B81882309F073C089818F
:100F7000282F30E03D832C838C819D818130910529
:100F800059F12C813D81223031052CF48C819D81D9
:100F9000009769F05FC02C813D812230310589F1D5
:100FA0008C819D818330910509F440C053C0AAE330
:100FB000B0E0EAE3F0E08081482F8A81282F30E01A
:100FC00081E090E0022E02C0880F991F0A94E2F798
:100FD000809584238C933EC0A7E3B0E0E7E3F0E084
:100FE0008081482F8A81282F30E081E090E0022E16
:100FF00002C0880F991F0A94E2F7809584238C938E
:1010000029C0A4E3B0E0E4E3F0E08081482F8A81C6
:10101000282F30E081E090E0022E02C0880F991F57
:101020000A94E2F7809584238C9314C0A1E3B0E086
:10103000E1E3F0E08081482F8A81282F30E081E0D1
:1010400090E0022E02C0880F991F0A94E2F7809563
:1010500084238C9327960FB6F894DEBF0FBECDBFC6
:10106000CF91DF910895DF93CF93CDB7DEB7279768
:101070000FB6F894DEBF0FBECDBF89836A834B8362
:101080008B81813009F06FC08981282F30E03F8348
:101090002E838E819F818130910549F12E813F8180
:1010A000223031052CF48E819F81009761F0D2C0EF
:1010B0002E813F812230310571F18E819F818330F5
:1010C0009105E9F1C7C0ABE3B0E0EBE3F0E080816C
:1010D000482F8A81282F30E081E090E0022E02C064
:1010E000880F991F0A94E2F7842B8C93B3C0A8E36E
:1010F000B0E0E8E3F0E08081482F8A81282F30E0DB
:1011000081E090E0022E02C0880F991F0A94E2F756
:10111000842B8C939FC0A5E3B0E0E5E3F0E08081F1
:10112000482F8A81282F30E081E090E0022E02C013
:10113000880F991F0A94E2F7842B8C938BC0A2E34B
:10114000B0E0E2E3F0E08081482F8A81282F30E090
:1011500081E090E0022E02C0880F991F0A94E2F706
:10116000842B8C9377C08B81882309F073C089818D
:10117000282F30E03D832C838C819D818130910527
:1011800059F12C813D81223031052CF48C819D81D7
:10119000009769F05FC02C813D812230310589F1D3
:1011A0008C819D818330910509F440C053C0ABE32D
:1011B000B0E0EBE3F0E08081482F8A81282F30E017
:1011C00081E090E0022E02C0880F991F0A94E2F796
:1011D000809584238C933EC0A8E3B0E0E8E3F0E080
:1011E0008081482F8A81282F30E081E090E0022E14
:1011F00002C0880F991F0A94E2F7809584238C938C
:1012000029C0A5E3B0E0E5E3F0E08081482F8A81C2
:10121000282F30E081E090E0022E02C0880F991F55
:101220000A94E2F7809584238C9314C0A2E3B0E083
:10123000E2E3F0E08081482F8A81282F30E081E0CE
:1012400090E0022E02C0880F991F0A94E2F7809561
:1012500084238C9327960FB6F894DEBF0FBECDBFC4
:10126000CF91DF910895DF93CF9300D000D000D0CD
:10127000CDB7DEB78A836B838B81883008F06EC070
:101280008A81843008F06AC08A81282F30E03E834A
:101290002D834D815E814130510541F18D819E81CB
:1012A0008230910534F42D813E812115310561F0A4
:1012B00052C04D815E814230510551F18D819E8138
:1012C00083309105B9F147C0E9E3F0E08081282F30
:1012D00030E08B81882F90E0A90102C05595479599
:1012E0008A95E2F7CA018170898335C0E6E3F0E0B0
:1012F0008081282F30E08B81882F90E0A90102C0E7
:10130000559547958A95E2F7CA018170898323C074
:10131000E3E3F0E08081282F30E08B81882F90E09C
:10132000A90102C0559547958A95E2F7CA018170D7
:10133000898311C0E0E3F0E08081282F30E08B81C9
:10134000882F90E0A90102C0559547958A95E2F74C
:10135000CA018170898359815C8302C08FEF8C83BD
:101360008C8126960FB6F894DEBF0FBECDBFCF910D
:10137000DF910895DF93CF9300D000D0CDB7DEB7D3
:1013800089836A838981282F30E03C832B838B817A
:101390009C8181309105D1F02B813C812230310537
:1013A0002CF48B819C81009761F01EC02B813C81C5
:1013B0002230310581F08B819C818330910581F051
:1013C00013C0EAE3F0E08A8180830EC0E7E3F0E037
:1013D0008A81808309C0E4E3F0E08A81808304C0CD
:1013E000E1E3F0E08A8180830F900F900F900F90DF
:1013F000CF91DF910895DF93CF9300D000D0CDB788
:10140000DEB789836A838981282F30E03C832B8370
:101410008B819C8181309105D1F02B813C812230E0
:1014200031052CF48B819C81009761F01EC02B81CB
:101430003C812230310581F08B819C818330910584
:1014400081F013C0EBE3F0E08A8180830EC0E8E313
:10145000F0E08A81808309C0E5E3F0E08A8180833F
:1014600004C0E2E3F0E08A8180830F900F900F9038
:101470000F90CF91DF910895DF93CF93CDB7DEB773
:1014800083E062E040E00E943307ABE5B0E0EBE5CB
:10149000F0E0808180648C93CF91DF910895DF9399
:1014A000CF93CDB7DEB783E063E040E00E9433071F
:1014B00083E063E041E00E943308ABE5B0E0EBE598
:1014C000F0E0808180688C93CF91DF910895DF9365
:1014D000CF93CDB7DEB781E062E040E00E943307F2
:1014E00081E062E041E00E943308ABE5B0E0EBE56B
:1014F000F0E0808180628C93CF91DF910895DF933B
:10150000CF93CDB7DEB728970FB6F894DEBF0FBEE6
:10151000CDBF89836A838981823001F58A81282F32
:1015200030E038872F838F8198858130910531F0A5
:101530002F8138852230310549F0C9C0A4E5B0E0DB
:10154000E4E5F0E0808180648C93C1C0A4E5B0E064
:10155000E4E5F0E080818F7B8C93B9C08981813094
:1015600009F05BC08A81282F30E03E832D838D8176
:101570009E818130910521F12D813E8122303105FE
:101580002CF48D819E81009761F0A1C02D813E8158
:101590002230310521F18D819E818330910571F1D9
:1015A00096C0A5E5B0E0E5E5F0E080818B7F8C9307
:1015B000A5E5B0E0E5E5F0E08081877F8C9387C00A
:1015C000A5E5B0E0E5E5F0E0808184608C93A5E5D9
:1015D000B0E0E5E5F0E0808188608C9378C0A5E517
:1015E000B0E0E5E5F0E080818B7F8C93A5E5B0E08D
:1015F000E5E5F0E0808188608C9369C0A5E5B0E006
:10160000E5E5F0E08081877F8C93A5E5B0E0E5E536
:10161000F0E0808184608C935AC08A81282F30E06A
:101620003C832B838B819C818130910521F12B811F
:101630003C81223031052CF48B819C81009761F034
:1016400046C02B813C812230310521F18B819C8168
:101650008330910571F13BC0A5E5B0E0E5E5F0E030
:1016600080818E7F8C93A5E5B0E0E5E5F0E0808198
:101670008D7F8C932CC0A5E5B0E0E5E5F0E080819E
:1016800081608C93A5E5B0E0E5E5F0E080818260C3
:101690008C931DC0A5E5B0E0E5E5F0E080818E7F8C
:1016A0008C93A5E5B0E0E5E5F0E0808182608C9365
:1016B0000EC0A5E5B0E0E5E5F0E080818D7F8C937C
:1016C000A5E5B0E0E5E5F0E0808181608C932896A7
:1016D0000FB6F894DEBF0FBECDBFCF91DF91089556
:1016E000DF93CF9300D00F92CDB7DEB78983898186
:1016F000282F30E03B832A838A819B8181309105AA
:1017000089F02A813B8122303105A1F08A819B81B9
:101710000097B9F4ABE5B0E0EBE5F0E080818F7BBA
:101720008C930FC0ABE5B0E0EBE5F0E080818F7704
:101730008C9307C0ABE5B0E0EBE5F0E080818F7DF6
:101740008C930F900F900F90CF91DF9108951F927F
:101750000F920FB60F9211240F931F932F933F9365
:101760004F935F936F937F938F939F93AF93BF93A9
:10177000EF93FF93DF93CF93CDB7DEB780917400E3
:10178000882369F480E00E94570F1092750080E072
:1017900062E00E947F0A81E0809374002DC08091F6
:1017A0007400813049F580917500882F90E0A0E0A9
:1017B000B0E0BA2FA92F982F88278C010E94650FBF
:1017C000882F90E0800F911F909377008093760090
:1017D00080917600909177002AE330E0B9010E9471
:1017E000DB12CB01909377008093760080E061E07C
:1017F0000E947F0A10927400CF91DF91FF91EF91C8
:10180000BF91AF919F918F917F916F915F914F9118
:101810003F912F911F910F910F900FBE0F901F902E
:1018200018951F920F920FB60F921124DF93CF934A
:10183000CDB7DEB7CF91DF910F900FBE0F901F9005
:1018400018951F920F920FB60F921124DF93CF932A
:10185000CDB7DEB7CF91DF910F900FBE0F901F90E5
:101860001895DF93CF93CDB7DEB72F970FB6F894C7
:10187000DEBF0FBECDBF8F8781E062E040E00E94F7
:10188000330881E061E040E00E94330880E06F852A
:101890000E94FB0981E060E041E00E94330880E0A3
:1018A00090E0A0E0B0E48B879C87AD87BE876B8516
:1018B0007C858D859E8520E030E04AEF54E40E94CF
:1018C0001F02DC01CB018F839887A987BA876F81BC
:1018D000788589859A8520E030E040E85FE30E94C2
:1018E000250488232CF481E090E09E838D833FC003
:1018F0006F81788589859A8520E03FEF4FE757E42F
:101900000E94C50318164CF56B857C858D859E85D8
:1019100020E030E040E251E40E941F02DC01CB01F4
:10192000BC01CD010E944900DC01CB019E838D8367
:101930000FC088EC90E09C838B838B819C81019706
:10194000F1F79C838B838D819E8101979E838D838C
:101950008D819E81009769F714C06F817885898594
:101960009A850E944900DC01CB019E838D838D8185
:101970009E819A83898389819A810197F1F79A835D
:10198000898381E060E040E00E9433082F960FB623
:10199000F894DEBF0FBECDBFCF91DF910895DF93E6
:1019A000CF93CDB7DEB72F970FB6F894DEBF0FBE3B
:1019B000CDBF8F8781E062E041E00E94330881E083
:1019C00061E040E00E94330880E06F850E94FB09DF
:1019D00081E060E041E00E94330880E090E0A0E018
:1019E000B0E48B879C87AD87BE876B857C858D85B2
:1019F0009E8520E030E04AEF54E40E941F02DC01A3
:101A0000CB018F839887A987BA876F81788589856D
:101A10009A8520E030E040E85FE30E9425048823B7
:101A20002CF481E090E09E838D833FC06F817885A8
:101A300089859A8520E03FEF4FE757E40E94C50370
:101A400018164CF56B857C858D859E8520E030E0F1
:101A500040E251E40E941F02DC01CB01BC01CD0138
:101A60000E944900DC01CB019E838D830FC088EC6E
:101A700090E09C838B838B819C810197F1F79C8301
:101A80008B838D819E8101979E838D838D819E8125
:101A9000009769F714C06F81788589859A850E94BF
:101AA0004900DC01CB019E838D838D819E819A83C9
:101AB000898389819A810197F1F79A83898381E0EB
:101AC00060E040E00E9433082F960FB6F894DEBF26
:101AD0000FBECDBFCF91DF910895DF93CF93CDB7E8
:101AE000DEB72E970FB6F894DEBF0FBECDBF80E0F5
:101AF0006FEF0E94BA0981E060E041E00E94330785
:101B000081E061E041E00E94330781E062E041E072
:101B10000E94330780E090E0A0EFB1E48B879C87C0
:101B2000AD87BE876B857C858D859E8520E030E006
:101B30004AEF54E40E941F02DC01CB018F83988797
:101B4000A987BA876F81788589859A8520E030E0FA
:101B500040E85FE30E94250488232CF481E090E0B4
:101B60009E838D833FC06F81788589859A8520E02B
:101B70003FEF4FE757E40E94C50318164CF56B85FD
:101B80007C858D859E8520E030E040E251E40E9416
:101B90001F02DC01CB01BC01CD010E944900DC0128
:101BA000CB019E838D830FC088EC90E09C838B8358
:101BB0008B819C810197F1F79C838B838D819E8122
:101BC00001979E838D838D819E81009769F714C054
:101BD0006F81788589859A850E944900DC01CB0157
:101BE0009E838D838D819E819A83898389819A8149
:101BF0000197F1F79A83898388E30E94310C8CE086
:101C00000E94310C81E00E94310C2E960FB6F894A0
:101C1000DEBF0FBECDBFCF91DF910895DF93CF938D
:101C200000D00F92CDB7DEB79B838A8319820EC096
:101C30008981282F30E08A819B81FC01E20FF31F0C
:101C400080810E94CF0C89818F5F89838981282FB1
:101C500030E08A819B81FC01E20FF31F80818823A1
:101C600039F70F900F900F90CF91DF910895DF9388
:101C7000CF9300D00F92CDB7DEB78A836B838A8172
:101C8000882339F48B818983898180580E94310CA3
:101C90000AC08A81813039F48B81805C8983898193
:101CA00080580E94310C0F900F900F90CF91DF91D0
:101CB0000895DF93CF9300D000D000D0CDB7DEB72A
:101CC0009D838C836E83198230C08981882F90E038
:101CD000880F991F880F991F880F991F8B838B81FD
:101CE000805C0E94310C1A821AC08981882F90E092
:101CF0009C01220F331F220F331F220F331F8C81B1
:101D00009D81280F391F8A81882F90E0F901E80F03
:101D1000F91F80810E94CF0C8A818F5F8A838A811C
:101D2000883018F389818F5F898399818E81981714
:101D300060F226960FB6F894DEBF0FBECDBFCF91EE
:101D4000DF910895DF93CF9300D0CDB7DEB78A83BC
:101D5000198206C080E20E94CF0C89818F5F89833F
:101D600099818A819817B0F30F900F90CF91DF91EE
:101D70000895DF93CF93CDB7DEB72B970FB6F894C6
:101D8000DEBF0FBECDBF9B878A871A8287E0FE0128
:101D90003396DF01982F1D929A95E9F71DC08A812D
:101DA000E82FF0E08A859B852AE030E0B9010E94A7
:101DB000DB12282FCE010396E80FF91F20838A85B6
:101DC0009B852AE030E0B9010E94DB12CB019B87A2
:101DD0008A878A818F5F8A838A859B850097F9F637
:101DE0008A818150898311C08981282F332727FD5B
:101DF0003095CE010396FC01E20FF31F8081805DD8
:101E00000E94CF0C8981815089838981882364F75E
:101E10002B960FB6F894DEBF0FBECDBFCF91DF91EA
:101E20000895DF93CF93CDB7DEB7A9E5B0E0E9E53C
:101E3000F0E0808181608C93A3E5B0E0E3E5F0E021
:101E40008081887F8C93A3E5B0E0E3E5F0E08081BA
:101E500082608C93A3E5B0E0E3E5F0E080818064EC
:101E60008C93A3E5B0E0E3E5F0E0808188608C939B
:101E7000A3E5B0E0E3E5F0E080818F7E8C93A3E5FD
:101E8000B0E0E3E5F0E0808180628C93CF91DF9158
:101E90000895DF93CF930F92CDB7DEB78983ECE53A
:101EA000F0E0898180830F90CF91DF910895DF93D7
:101EB000CF930F92CDB7DEB78983E2E5F0E0898159
:101EC00080830F90CF91DF910895DF93CF93CDB7AB
:101ED000DEB7E2E5F0E08081CF91DF910895DF93F6
:101EE000CF93CDB7DEB7AEE4B0E0EEE4F0E08081B2
:101EF000887F8C93AEE4B0E0EEE4F0E08081826015
:101F00008C93AFE4B0E0EFE4F0E080818C708C93D0
:101F1000AEE4B0E0EEE4F0E08081877E8C93AEE446
:101F2000B0E0EEE4F0E0808188618C93AFE4B0E053
:101F3000EFE4F0E0808182608C93AFE4B0E0EFE406
:101F4000F0E0808180688C93AFE4B0E0EFE4F0E0F3
:101F500080818C93CF91DF910895DF93CF9300D050
:101F6000CDB7DEB79A838983E6E4F0E089819A8170
:101F7000918380830F900F90CF91DF910895DF932D
:101F8000CF9300D0CDB7DEB79A838983EAE4F0E03F
:101F900089819A81918380830F900F90CF91DF91F7
:101FA0000895DF93CF9300D0CDB7DEB79A838983AE
:101FB000ECE4F0E089819A81918380830F900F9007
:101FC000CF91DF910895DF93CF93CDB7DEB7ECE4E7
:101FD000F0E080819181CF91DF9108951F920F925F
:101FE0000FB60F9211248F93DF93CF93CDB7DEB747
:101FF000809175008F5F80937500CF91DF918F91F5
:102000000F900FBE0F901F901895DF93CF930F92F4
:10201000CDB7DEB78983E3E4F0E0898180830F9058
:10202000CF91DF910895DF93CF93CDB7DEB7A5E4CD
:10203000B0E0E5E4F0E08081887F8C93A5E4B0E037
:10204000E5E4F0E0808182608C93A5E4B0E0E5E413
:10205000F0E0808180648C93A5E4B0E0E5E4F0E0FA
:10206000808188608C93A5E4B0E0E5E4F0E08081B5
:102070008F7E8C93A5E4B0E0E5E4F0E0808180629F
:102080008C93CF91DF910895DF93CF93CDB7DEB7D7
:10209000E4E4F0E08081CF91DF910895DF93CF9366
:1020A0000F92CDB7DEB78983E4E4F0E089818083C5
:1020B0000F90CF91DF910895DF93CF9300D0CDB7EC
:1020C000DEB79A83898383E065E041E00E943307AD
:1020D0000E946F0F89819A810E94AD0F0F900F901F
:1020E000CF91DF910895DF93CF93CDB7DEB7AFE502
:1020F000B0E0EFE5F0E0808180688C93CF91DF91D4
:102100000895DF93CF93CDB7DEB764970FB6F894F9
:10211000DEBF0FBECDBF0E944F060E9474110E9409
:102120006D0D80E29EE40E945C1080E690E00E94CB
:102130000E0E1C8A1B8A0E948A119C8B8B8B80E05E
:102140006CE00E94370E8B899C890E94B90E82E058
:102150000E94A20E8B899C898E31910508F0C0C027
:102160000E940A078CED95E09A8B898B17C08989AC
:102170009A890E94BF0F0E948A119C8B8B8B8B893E
:102180009C898F31910520F088EC0E9466060CC076
:1021900089899A898C599F4F9A8B898B89899A89C9
:1021A00027E0813D920718F380ED97E0988B8F87A9
:1021B00017C08F8598890E94BF0F0E948A119C8B3F
:1021C0008B8B8B899C898F31910520F088EC0E9444
:1021D00087060CC08F85988984569040988B8F878E
:1021E0008F85988923E0883E920718F78CED95E05B
:1021F0000E94BF0F80E090E0AAEFB3E48B879C873A
:10220000AD87BE876B857C858D859E8520E030E01F
:102210004AEF54E40E941F02DC01CB018F839887B0
:10222000A987BA876F81788589859A8520E030E013
:1022300040E85FE30E94250488232CF481E090E0CD
:102240009E838D833FC06F81788589859A8520E044
:102250003FEF4FE757E40E94C50318164CF56B8516
:102260007C858D859E8520E030E040E251E40E942F
:102270001F02DC01CB01BC01CD010E944900DC0141
:10228000CB019E838D830FC088EC90E09C838B8371
:102290008B819C810197F1F79C838B838D819E813B
:1022A00001979E838D838D819E81009769F714C06D
:1022B0006F81788589859A850E944900DC01CB0170
:1022C0009E838D838D819E819A83898389819A8162
:1022D0000197F1F79A83898388EC0E94A8062BCF97
:1022E00088EC0E94A80627CFDF93CF93CDB7DEB747
:1022F00082E060E041E00E9433070E9473100E9478
:10230000110F0E943C0A80E061E00E947F0ACF9199
:10231000DF910895DF93CF93CDB7DEB7A6970FB6C1
:10232000F894DEBF0FBECDBF82E060E041E00E94C6
:10233000330880E090E0A0E2B1E48BA39CA3ADA3BE
:10234000BEA36BA17CA18DA19EA12BEA3AEA4AE231
:1023500050E40E941F02DC01CB018F8F98A3A9A338
:10236000BAA36F8D78A189A19AA120E030E040E85E
:102370005FE30E94250488231CF481E08E8F91C0C6
:102380006F8D78A189A19AA120E030E04FE753E456
:102390000E94C50318160CF07BC06BA17CA18DA117
:1023A0009EA120E030E04AE754E40E941903DC01DA
:1023B000CB018A8F9B8FAC8FBD8F6A8D7B8D8C8D6F
:1023C0009D8D20E030E04AEF54E40E941F02DC01C2
:1023D000CB018E8B9F8BA88FB98F6E897F89888D5B
:1023E000998D20E030E040E85FE30E9425048823D7
:1023F0002CF481E090E09D8B8C8B3FC06E897F89AF
:10240000888D998D20E03FEF4FE757E40E94C50388
:1024100018164CF56A8D7B8D8C8D9D8D20E030E0FB
:1024200040E251E40E941F02DC01CB01BC01CD015E
:102430000E944900DC01CB019D8B8C8B0FC088EC86
:1024400090E09B8B8A8B8A899B890197F1F79B8B04
:102450008A8B8C899D8901979D8B8C8B8C899D891A
:10246000009769F724C06E897F89888D998D0E94B5
:102470004900DC01CB019D8B8C8B8C899D89998BCC
:10248000888B888999890197F1F7998B888B0FC080
:102490006F8D78A189A19AA10E944900DC01CB012E
:1024A0008E8F8E8D8F878F858A95F1F78F8782E04B
:1024B00060E040E00E94330880E090E0A0E7B2E4F2
:1024C0008B879C87AD87BE876B857C858D859E8538
:1024D00020E030E04AEF54E40E941F02DC01CB010F
:1024E0008F839887A987BA876F81788589859A8530
:1024F00020E030E040E85FE30E94250488232CF4CC
:1025000081E090E09E838D833FC06F8178858985CF
:102510009A8520E03FEF4FE757E40E94C503181665
:102520004CF56B857C858D859E8520E030E040E212
:1025300051E40E941F02DC01CB01BC01CD010E94CD
:102540004900DC01CB019E838D830FC088EC90E0B5
:102550009C838B838B819C810197F1F79C838B8378
:102560008D819E8101979E838D838D819E810097B1
:1025700069F714C06F81788589859A850E94490022
:10258000DC01CB019E838D838D819E819A8389831B
:1025900089819A810197F1F79A83898380917600E6
:1025A00090917700A6960FB6F894DEBF0FBECDBF10
:1025B000CF91DF910895AA1BBB1B51E107C0AA1F51
:1025C000BB1FA617B70710F0A61BB70B881F991FD4
:1025D0005A95A9F780959095BC01CD0108952F9249
:1025E0003F924F925F926F927F928F929F92AF92A3
:1025F000BF92CF92DF92EF92FF920F931F93CF93F0
:10260000DF93CDB7DEB7CA1BDB0B0FB6F894DEBF86
:102610000FBECDBF09942A88398848885F846E84AC
:102620007D848C849B84AA84B984C884DF80EE80F6
:10263000FD800C811B81AA81B981CE0FD11D0FB6FF
:10264000F894DEBF0FBECDBFED010895F894FFCF23
:1026500044495354414E4345203A200000000000B5
:042660000000000076
:00000001FF
